:100000000C942A000C9447000C9447000C94470071
:100010000C9447000C9447000C9447000C94470044
:100020000C9447000C9447000C9447000C94470034
:100030000C9447000C9447000C9447000C94470024
:100040000C9447000C9447000C9447000C94470014
:100050000C94470011241FBECFE5D8E0DEBFCDBF12
:1000600011E0A0E6B0E0EAE9FEE002C005900D92E2
:10007000A031B107D9F721E0A0E1B1E001C01D92A4
:10008000AC31B207E1F70E94F8060C944B070C94D0
:100090000000CF93DF93CDB7DEB78AE390E02FEF78
:1000A000FC0120838BE390E0FC01108289E390E067
:1000B000FC01108287E390E02FEFFC01208388E3AE
:1000C00090E0FC01108286E390E0FC01108284E362
:1000D00090E0FC01108285E390E0FC01108283E354
:1000E00090E0FC01108281E390E02FEFFC0120837F
:1000F00082E390E0FC01108280E390E0FC0110823A
:100100000000DF91CF910895CF93DF9300D00F923D
:10011000CDB7DEB78A836B8381E089838A818032A1
:1001200008F0DAC08B81882F90E0009721F00197CA
:1001300009F46DC0CEC08A818830A8F48AE390E0CB
:10014000FC018081282F8A81882F90E08770992771
:10015000895F9E4FFC018081809528238AE390E08F
:10016000FC012083BBC08A818830C0F08A81803145
:10017000A8F487E390E0FC018081282F8A81882FF2
:1001800090E087709927895F9E4FFC018081809560
:10019000282387E390E0FC01208338C08A818031E6
:1001A000C0F08A818831A8F484E390E0FC0180816A
:1001B000282F8A81882F90E087709927895F9E4F2A
:1001C000FC0180818095282384E390E0FC0120835A
:1001D0001DC08A81883108F481C08A81803208F08C
:1001E0007DC081E390E0FC018081282F8A81882FE7
:1001F00090E087709927895F9E4FFC0180818095F0
:10020000282381E390E0FC01208368C067C08A81D5
:10021000883098F48AE390E0FC0130818A81882F4D
:1002200090E087709927895F9E4FFC0120818AE3C7
:1002300090E0232BFC01208353C08A818830B0F0EA
:100240008A81803198F487E390E0FC0130818A81D3
:10025000882F90E087709927895F9E4FFC0120814D
:1002600087E390E0232BFC01208332C08A81803118
:10027000B0F08A81883198F484E390E0FC01308109
:100280008A81882F90E087709927895F9E4FFC01B3
:10029000208184E390E0232BFC01208319C08A8114
:1002A0008831F0F08A818032D8F481E390E0FC015B
:1002B00030818A81882F90E087709927895F9E4FCF
:1002C000FC01208181E390E0232BFC01208308C006
:1002D00007C01982000005C0198203C0000001C0D8
:1002E000000089810F900F900F90DF91CF910895BA
:1002F000CF93DF9300D00F92CDB7DEB78A836B83A5
:1003000081E089838A81803208F0D9C08B81882F6F
:1003100090E0009721F0019709F46DC0CEC08A816A
:100320008830A8F48BE390E0FC018081282F8A813B
:10033000882F90E087709927895F9E4FFC0180810C
:10034000809528238BE390E0FC012083BAC08A814A
:100350008830C0F08A818031A8F488E390E0FC0105
:100360008081282F8A81882F90E087709927895F64
:100370009E4FFC0180818095282388E390E0FC015A
:10038000208338C08A818031C0F08A818831A8F406
:1003900085E390E0FC018081282F8A81882F90E0FE
:1003A00087709927895F9E4FFC0180818095282363
:1003B00085E390E0FC0120831DC08A81883108F428
:1003C00080C08A81803208F07CC082E390E0FC012A
:1003D0008081282F8A81882F90E087709927895FF4
:1003E0009E4FFC0180818095282382E390E0FC01F0
:1003F000208367C066C08A81883098F48BE390E0E0
:10040000FC0130818A81882F90E087709927895F6D
:100410009E4FFC0120818BE390E0232BFC01208385
:1004200052C08A818830B0F08A81803198F488E3A4
:1004300090E0FC0130818A81882F90E087709927B5
:10044000895F9E4FFC01208188E390E0232BFC0113
:10045000208332C08A818031B0F08A81883198F45B
:1004600085E390E0FC0130818A81882F90E08770DD
:100470009927895F9E4FFC01208185E390E0232B23
:10048000FC01208319C08A818831E8F08A8180329A
:10049000D0F482E390E0FC0130818A81882F90E0E3
:1004A00087709927895F9E4FFC01208182E390E04D
:1004B000232BFC01208307C006C0198205C01982C6
:1004C00003C0000001C0000089810F900F900F90C1
:1004D000DF91CF910895CF93DF9300D000D0CDB7B7
:1004E000DEB78A837C836B8381E089838A81803253
:1004F00008F060C08B819C81892B09F45BC08A81E4
:10050000883088F489E390E0FC0120818A81882F7B
:1005100090E0895F9E4FFC01808128238B819C8124
:10052000FC01208344C08A818830A0F08A81803118
:1005300088F486E390E0FC0120818A81882F90E096
:10054000895F9E4FFC01808128238B819C81FC0167
:1005500020832DC08A818031A0F08A81883188F47F
:1005600083E390E0FC0120818A81882F90E0895FFD
:100570009E4FFC01808128238B819C81FC0120837C
:1005800016C08A81883198F08A81803280F480E3B5
:1005900090E0FC0120818A81882F90E0895F9E4F46
:1005A000FC01808128238B819C81FC01208381E0D8
:1005B000898301C0198289810F900F900F900F904D
:1005C000DF91CF910895CF93DF9300D00F92CDB7F5
:1005D000DEB78A836B8381E089838A81843008F067
:1005E00057C08B81882F90E0009721F08F3F9105B5
:1005F00009F14BC08A81882329F48AE390E0FC0149
:10060000108248C08A81813029F487E390E0FC01A0
:10061000108240C08A81823029F484E390E0FC019A
:10062000108238C08A818330A9F581E390E0FC0113
:10063000108230C08A81882F90E08130910591F03E
:10064000823091051CF4892B39F025C08230910548
:1006500079F0039799F01FC08AE390E02FEFFC0137
:10066000208312C087E390E02FEFFC0120830CC0B1
:1006700084E390E02FEFFC01208306C081E390E04B
:100680002FEFFC012083000006C01982000003C088
:10069000198201C0000089810F900F900F90DF91A7
:1006A000CF910895CF93DF9300D00F92CDB7DEB7EF
:1006B0008A836B8381E089838A81843008F07CC0DF
:1006C0008B81882F90E08F3F91053CF41816190616
:1006D0000CF44CC0892B29F06DC08F3F910511F1AE
:1006E00069C08A81882329F48BE390E0FC011082A1
:1006F00065C08A81813029F488E390E0FC01108292
:100700005DC08A81823029F485E390E0FC0110828B
:1007100055C08A81833009F051C082E390E0FC012A
:1007200010824CC08A81882331F48BE390E02FEF54
:10073000FC01208345C08A81813031F488E390E058
:100740002FEFFC0120833CC08A81823031F485E3A5
:1007500090E02FEFFC01208333C08A81833081F544
:1007600082E390E02FEFFC0120832AC08A81882356
:1007700031F48BE390E02B81FC01208323C08A813C
:10078000813031F488E390E02B81FC0120831AC092
:100790008A81823031F485E390E02B81FC01208353
:1007A00011C08A81833071F482E390E02B81FC01D7
:1007B000208308C0198207C0198205C0000003C049
:1007C000000001C0000089810F900F900F90DF9111
:1007D000CF910895CF93DF9300D000D0CDB7DEB78F
:1007E0008A837C836B8381E089838A818032B0F540
:1007F0008B819C81892B91F18A81882349F489E33B
:1008000090E0FC0120818B819C81FC01208323C02E
:100810008A81813049F486E390E0FC0120818B815C
:100820009C81FC01208317C08A81823049F483E3D4
:1008300090E0FC0120818B819C81FC0120830BC016
:100840008A81882341F480E390E0FC0120818B8140
:100850009C81FC01208381E0898301C01982898108
:100860000F900F900F900F90DF91CF910895CF933D
:10087000DF93CDB7DEB72A970FB6F894DEBF0FBE71
:10088000CDBF9A8789871D821E821F82188628C045
:1008900019821A821B821C820FC000000000000017
:1008A000000089819A81AB81BC810196A11DB11D97
:1008B00089839A83AB83BC8389819A81AB81BC8114
:1008C000803D9105A105B10540F38D819E81AF81E9
:1008D000B8850196A11DB11D8D839E83AF83B88716
:1008E00089859A85CC01A0E0B0E02D813E814F81C1
:1008F0005885281739074A075B0750F200002A96E7
:100900000FB6F894DEBF0FBECDBFDF91CF91089533
:10091000CF93DF9300D000D0CDB7DEB79C838B831D
:100920008B819C8145979C01A9E8B8E80E943C070F
:100930009695879596958795969587959A838983B9
:1009400006C0000089819A8101979A8389838981F1
:100950009A81892BB1F700000F900F900F900F90A4
:10096000DF91CF910895CF93DF9300D000D00F9205
:10097000CDB7DEB78C836D838C81833018F48D8185
:100980008A3010F01982A7C08C81882F90E0875E92
:100990009E4FFC018081882309F09BC08C81882FA9
:1009A00090E08D5E9E4F21E0FC0120838C81882F9A
:1009B00090E08A5E9E4F2D81FC0120838C81882FE0
:1009C00090E0805F9E4FFC018081882309F041C048
:1009D0008C81882F90E08F5F9E4FFC01808160E0CA
:1009E0000E94780189831A8230C08D81282F30E0DF
:1009F0008A81482F50E0C901880F991F880F991FDD
:100A0000880F991F821B930B840F951F805A9F4F4D
:100A1000FC0160818C81282F30E08A81482F50E0D2
:100A2000C901880F991F880F991F880F991F821B72
:100A3000930B840F951F84519F4FFC0180810E946E
:100A4000780189838A818F5F8A838A81873068F2FF
:100A500042C08C81882F90E08F5F9E4FFC01808187
:100A600061E00E9478011B8230C08D81282F30E028
:100A70008B81482F50E0C901880F991F880F991F5B
:100A8000880F991F821B930B840F951F8A559F4FC8
:100A9000FC0160818C81282F30E08B81482F50E051
:100AA000C901880F991F880F991F880F991F821BF2
:100AB000930B840F951F84519F4FFC0180810E94EE
:100AC000780189838B818F5F8B838B81873068F27C
:100AD00002C081E0898389810F900F900F900F9061
:100AE0000F90DF91CF910895CF93DF9300D000D086
:100AF00000D0CDB7DEB78E8310921C018E8183307B
:100B000010F0198237C18E81882F90E0805F9E4F50
:100B1000FC018081882309F098C08E81882F90E0A5
:100B20008D5E9E4FFC018081882309F047C08E8135
:100B3000882F90E08F5F9E4FFC01808160E00E94D3
:100B4000780189831A8236C08E81882F90E08C5F6D
:100B50009E4FFC018081282F30E08A81482F50E091
:100B6000C901880F991F880F991F880F991F821B31
:100B7000930B840F951F805A9F4FFC0160818E81DB
:100B8000282F30E08A81482F50E0C901880F991F33
:100B9000880F991F880F991F821B930B840F951F35
:100BA00084519F4FFC0180810E94780189838A8152
:100BB0008F5F8A838A81873038F2DCC08E81882FEC
:100BC00090E08F5F9E4FFC01808160E00E94780181
:100BD00089831B8236C08E81882F90E08A5E9E4F6B
:100BE000FC018081282F30E08B81482F50E0C90123
:100BF000880F991F880F991F880F991F821B930BCD
:100C0000840F951F805A9F4FFC0160818E81282F91
:100C100030E08B81482F50E0C901880F991F880F61
:100C2000991F880F991F821B930B840F951F845166
:100C30009F4FFC0180810E94780189838B818F5FA7
:100C40008B838B81873038F295C08E81882F90E01E
:100C50008D5E9E4FFC018081882309F046C08E8105
:100C6000882F90E08F5F9E4FFC01808161E00E94A1
:100C700078011C8236C08E81882F90E08C5F9E4F59
:100C8000FC018081282F30E08C81482F50E0C90181
:100C9000880F991F880F991F880F991F821B930B2C
:100CA000840F951F8A559F4FFC0160818E81282FEC
:100CB00030E08C81482F50E0C901880F991F880FC0
:100CC000991F880F991F821B930B840F951F8451C6
:100CD0009F4FFC0180810E94780189838C818F5F06
:100CE0008C838C81873038F245C08E81882F90E0CC
:100CF0008F5F9E4FFC01808161E00E9478011D8220
:100D000036C08E81882F90E08A5E9E4FFC018081E4
:100D1000282F30E08D81482F50E0C901880F991F9E
:100D2000880F991F880F991F821B930B840F951FA3
:100D30008A559F4FFC0160818E81282F30E08D8184
:100D4000482F50E0C901880F991F880F991F880FFD
:100D5000991F821B930B840F951F84519F4FFC0199
:100D600080810E94780189838D818F5F8D838D8141
:100D7000873038F2898126960FB6F894DEBF0FBE11
:100D8000CDBFDF91CF910895CF93DF9300D0CDB742
:100D9000DEB78A8381E080931C018A81833010F062
:100DA000198220C08A81882F90E0805F9E4FFC01CD
:100DB0008081882361F48A81882F90E08F5F9E4F25
:100DC000FC01808161E00E94780189830BC08A81E7
:100DD000882F90E08F5F9E4FFC01808160E00E9431
:100DE0007801898389810F900F90DF91CF910895C9
:100DF000CF93DF9300D00F92CDB7DEB70E944900AA
:100E000080E00E94740581E00E94740582E00E94E7
:100E1000740581E089832CC081E08A831BC01B821A
:100E20000BC06B8180E00E94B3048AE090E00E94D6
:100E300037048B818F5F8B838B818A3090F36A813B
:100E400081E00E94B3048AE090E00E9437048A8126
:100E50008F5F8A838A818A3010F3698182E00E94E1
:100E6000B3048AE090E00E94370489818F5F898310
:100E700089818A3088F2CDCFA29FB001B39FC00193
:100E8000A39F700D811D1124911DB29F700D811DB6
:0A0E90001124911D0895F894FFCF7E
:100E9A00010101010101000001010000000001013E
:100EAA00000101000101010101000001000101002E
:100EBA00000101010001010001010100010101011C
:100ECA00010101010000000001010101010101010C
:100EDA000101010001010000000000000101000001
:100EEA0001010101000001000001000000000001F1
:100EFA0001000100000101000000010000010000E2
:100F0A0000010000000000000000010101010000D2
:100F1A0000000000000000000001000009080C0E9B
:100F2A000F0A0B0100040607020319181C1E1F1AD8
:100F3A001B0D051D0606060102040810204080004C
:00000001FF
